:100000000C9454010C94DA020C9471010C9471015B
:100010000C9471010C943A050C9471010C947101CB
:100020000C9471010C9471010C9434020C947101C4
:100030000C9471010C9425020C94B6010C9471017E
:100040000C9471010C9471010C9485010C94710154
:100050000C9471010C9468050C9471010C9471015D
:100060000C9471010C947101050000000000050062
:10007000005F000005000700070005147F147F14CF
:1000800005242A7F2A12052313086462053649567F
:10009000205005080703000005001C224100050050
:1000A00041221C000514083E08140508083E0808F3
:1000B0000500B07000000508080808080500606029
:1000C0000000052010080402053E5149453E050088
:1000D000427F4000057249494946052141494D3357
:1000E000051814127F10052745454539053C4A4936
:1000F0004931054121110907053649494936054667
:100100004949291E05000014000005004034000084
:100110000508142241000514141414140541221476
:100120000800050201590906053E415D594E057C4E
:100130001211127C057F49494936053E4141412251
:10014000057F4141413E057F49494949057F0909EC
:100150000909053E41415173057F0808087F0500E4
:10016000417F4100052040413F01057F08142241A5
:10017000057F40404040057F020C027F057F040858
:10018000107F053E4141413E057F09090906053EB4
:100190004151215E057F0919294605264949493201
:1001A0000501017F0101053F4040403F051F204000
:1001B000201F053F4038403F0563140814630503C2
:1001C0000478040305615149454305007F4141001E
:1001D000050204081020050041417F0005040201CA
:1001E000020405404040404005070B000000052088
:1001F00054547840057F2844443805384444442802
:1002000005384444287F0538545454180500087EA6
:1002100009020518A4A49C78057F08040478050049
:10022000447D4000052040403D00057F10284400EB
:100230000500417F4000057C04780478057C0804B3
:10024000047805384444443805FC1824241805185B
:10025000242418FC057C080404080548545454243C
:100260000504043F4424053C4040207C051C2040FC
:10027000201C053C4030403C054428102844054CD7
:100280009090907C054464544C440500083641002D
:10029000050000770000050041360800050402044F
:1002A000080405007F417F0011241FBECFEFD8E076
:1002B000DEBFCDBF11E0A0E0B1E0E8E2F3E202C0B2
:1002C00005900D92AE33B107D9F725E0AEE3B1E06A
:1002D00001C01D92AD39B207E1F70E9413070C94DB
:1002E00092110C9400009093C5008093C40088E99B
:1002F0008093C1008EE08093C20008959091C00069
:1003000095FFFCCF8093C60008951F920F920FB601
:100310000F9211242F933F934F935F936F937F938B
:100320008F939F93AF93BF93EF93FF938091C600FA
:100330008C3611F410927101843639F484E090E027
:100340000E94611190E00E947E01FF91EF91BF91A8
:10035000AF919F918F917F916F915F914F913F915D
:100360002F910F900FBE0F901F9018951F920F9214
:100370000FB60F921124CF92DF92EF92FF922F933C
:100380003F934F935F936F937F938F939F93AF931D
:10039000BF93EF93FF93C0907C01D0907D01E090DC
:1003A0007E01F0907F018FEFC81AD80AE80AF80A98
:1003B000C0927C01D0927D01E0927E01F0927F019B
:1003C000C701B60125E030E040E050E00E94851012
:1003D000672B682B692B19F481E080935001C701CA
:1003E000B60124EF31E040E050E00E948510672B19
:1003F000682B692B19F481E080934F0120913F0114
:100400003091400140E050E0C701B6010E948510E4
:10041000672B682B692B21F498B180E4892788B970
:10042000FF91EF91BF91AF919F918F917F916F91CC
:100430005F914F913F912F91FF90EF90DF90CF9080
:100440000F900FBE0F901F9018951F920F920FB62E
:100450000F9211248F9381E080934E018F910F9022
:100460000FBE0F901F9018951F920F920FB60F920C
:1004700011242F933F934F935F936F937F938F93A9
:100480009F93AF93BF93EF93FF938091810086FF7B
:100490000FC08091860090918700A0E0B0E080932B
:1004A0004A0190934B01A0934C01B0934D012AC097
:1004B0008091860090918700A0E0B0E040914A01D1
:1004C00050914B0160914C0170914D01841B950B33
:1004D000A60BB70B880F991FAA1FBB1F880F991F68
:1004E000AA1FBB1F880F991FAA1FBB1F880F991F28
:1004F000AA1FBB1F8093460190934701A093480118
:10050000B0934901E1E8F0E0908180E4892780839D
:1005100080914E01811113C0609146017091470195
:1005200080914801909149012AE330E040E050E099
:100530000E948510309387012093860102C010929B
:100540004E016091860170918701683C7105D8F475
:100550004F9B19C04E9B17C080E090E00E94130F84
:1005600020E030E048E453E40E942F0E20E030E029
:1005700048E453E40E9418100E94E40E7093400176
:1005800060933F0106C088B118B8109240011092E4
:100590003F01FF91EF91BF91AF919F918F917F911B
:1005A0006F915F914F913F912F910F900FBE0F90E0
:1005B0001F9018951F920F920FB60F9211248F92D1
:1005C0009F92AF92BF92CF92DF92EF92FF920F93E2
:1005D0001F932F933F934F935F936F937F938F93CB
:1005E0009F93AF93BF93CF93DF93EF93FF9380914C
:1005F0003E01853009F053C080917C0190917D01CE
:10060000A0917E01B0917F01209176013091770118
:100610006C01C21AD30AD0928501C09284018093E2
:10062000760190937701A0937801B093790160915E
:100630007A0170917B01072E000C880B990B0E94A8
:10064000150F2CE53FE54DE054E40E9418104B01D6
:100650005C010D2C000CEE08FF08C701B6010E94DA
:10066000150F9B01AC01C501B4010E942F0E0E9421
:10067000E40E6093800170938101809382019093D6
:10068000830160EE73E984E090E0A70196010E9487
:10069000A710309393012093920110923E01809114
:1006A0003E018F5F80933E0160917A0170917B01E2
:1006B000072E000C880B990B0E94150F26E53EE0D3
:1006C00049E450E40E9418106B017C0120918801DC
:1006D0003091890140918A0150918B0160918C0188
:1006E00070918D0180918E0190918F010E94500F29
:1006F000A70196010E94BE0D0E94A60E20938801BC
:100700003093890140938A0150938B0160938C014F
:1007100070938D0180938E0190938F010F2EF0EADC
:10072000AF2EF02D0F2EF6E8BF2EF02DCC24C39463
:10073000D12CE12CF12C00E010E00E94E21020937B
:10074000900130939101C0907201D0907301E090BC
:100750007401F090750120E030E44CE955E4C701E4
:10076000B6010E9418104B015C0120E030E040EA25
:1007700050E4C701B6010E9418109B01AC0160E073
:1007800078ED8FE995E40E94BD0D9B01AC01C50198
:10079000B4010E942F0E6093690170936A018093E7
:1007A0006B0190936C0120E030E048EC52E40E9431
:1007B000BD0D26E636E646E250E40E94181060932E
:1007C0006D0170936E0180936F0190937001609141
:1007D00043017091440180E090E00E94130F9B015F
:1007E000AC0160E871EC89E799E40E942F0E20E0EB
:1007F00030E04AE754E40E94BD0D0E94E40E70937D
:100800004201609341016039714020F485B18860F4
:1008100085B902C085B115B8C0906D01D0906E0148
:10082000E0906F01F0907001C701B6010E94DD0EEB
:10083000072E000C880B990B0E94150F9B01AC0131
:10084000C701B6010E94BD0D20E030E0A9010E9461
:100850001310882384F020E030E040E85FE3C70114
:10086000B6010E94BE0D60936D0170936E0180937E
:100870006F01909370016091710170E080E090E0F1
:100880000E94150FC0906D01D0906E01E0906F0135
:10089000F0907001A70196010E942A0E882334F47B
:1008A000C701B6010E94E40E6093710120E030E0C0
:1008B000A901C701B6010E942A0E882344F41092B0
:1008C0006D0110926E0110926F01109270012091D3
:1008D0006101309162014091630150916401609126
:1008E000650170916601809167019091680102E055
:1008F0000E943F11822E932ED42FC52FB62FA72FE3
:10090000F82FE92F0E943F11A22EB32EC42ED52E10
:10091000E62EF72E082F192F282D392D4D2F5C2F5D
:100920006B2F7A2F8F2F9E2F0E945811822E932E7D
:10093000D42FC52FB62FA72FF82FE92F02E00E9442
:100940003F11A22EB32EC42ED52EE62EF72E082F41
:10095000192F282D392D4D2F5C2F6B2F7A2F8F2F8C
:100960009E2F0E945811AA24AA940F2EF3E0BF2EA6
:10097000F02DC12CD12CE12CF12C00E010E00E94D4
:10098000E2100E94500F0E94A60E2093590130934E
:100990005A0140935B0150935C0160935D01709339
:1009A0005E0180935F01909360018091800190913E
:1009B0008101A0918201B09183014597A105B10504
:1009C00010F180918601909187018C329140D8F48A
:1009D0002091550130915601409157015091580195
:1009E000AFEFB0E00E94D51026EF37E240E050E0D4
:1009F0000E9485102093510130935201409353017E
:100A0000509354011AC020915501309156014091E4
:100A1000570150915801AFEFB0E00E94D5102FEF71
:100A200033E040E050E00E94851020935101309364
:100A300052014093530150935401FF91EF91DF9184
:100A4000CF91BF91AF919F918F917F916F915F9166
:100A50004F913F912F911F910F91FF90EF90DF9059
:100A6000CF90BF90AF909F908F900F900FBE0F9040
:100A70001F9018951F920F920FB60F9211248F930B
:100A80009F934C990EC04C990CC080917A01909123
:100A90007B018A3F91052CF4019690937B01809312
:100AA0007A014D990EC04D990CC080917A019091B8
:100AB0007B01181619062CF4019790937B01809303
:100AC0007A019F918F910F900FBE0F901F901895F4
:100AD0001F920F920FB60F9211242F933F934F93B3
:100AE0005F936F937F938F939F93AF93BF93CF93B6
:100AF000DF93EF93FF93809145018130C9F030F08F
:100B0000823051F1833009F43FC04CC080917800AD
:100B100090917900A0E0B0E0809355019093560148
:100B2000A0935701B093580181E480937C003AC0B0
:100B3000609178007091790080E090E00E94130F3E
:100B400060937201709373018093740190937501A7
:100B500082E480937C0026C0809178009091790097
:100B6000809361019093620110926301109264017D
:100B7000109265011092660110926701109268014F
:100B800083E480937C000EC080917800909179007E
:100B9000909344018093430180E480937C008FEF25
:100BA00080934501809145018F5F80934501FF91BE
:100BB000EF91DF91CF91BF91AF919F918F917F91F5
:100BC0006F915F914F913F912F910F900FBE0F90BA
:100BD0001F901895CF93DF9380E090E00E946911F9
:100BE000EC01909391018093900182E090E00E944B
:100BF000691190937B0180937A0184E090E00E94D8
:100C0000611180937101DE0120EA36E841E050E095
:100C10000E94D510609388017093890180938A01A6
:100C200090938B01DC01CB01BB0F880B982FDC016B
:100C300080938C0180938D0180938E0180938F012E
:100C4000DF91CF910895CF93DF93EC0188818823C2
:100C500031F080918001909181010E94B10718824A
:100C6000DF91CF9108950F93CF93DF93EC018881AB
:100C7000882311F04E9B02C04F99A2C00E94070C1E
:100C800061E081E00E949D0980E091E00E943B0DBF
:100C900064E087E50E949D096091590170915A01B5
:100CA00080915B0190915C010E94520D89E091E07E
:100CB0000E943B0D6DE081E00E949D0960919201D0
:100CC00070919301072E000C880B990B0E94520D16
:100CD0008CE091E00E943B0D62E187E50E949D0956
:100CE00060916D0170916E0180916F019091700122
:100CF0000E94DD0E0E94520D81E191E00E943B0DA9
:100D000069E181E00E949D0984E191E00E943B0D30
:100D1000609186017091870180E090E00E94520D01
:100D200065E281E00E949D098CE191E00E943B0D0B
:100D300060917A0170917B01072E000C880B990B52
:100D40000E94520D86E291E00E943B0D63E382E136
:100D50000E949D09609190017091910180E090E066
:100D60000E94520D8AE291E00E943B0D63E383E70B
:100D70000E949D094F9904C08DE291E00E943B0DB5
:100D80004F9B04C08FE291E00E943B0D0FEF2AE0E1
:100D900040E36AE081E00E94060B2DE34CE360E350
:100DA0008AE00E94990B2DE34DE760E38EE60E94F6
:100DB000990B2EE14CE761E080E50E94990B1882C7
:100DC0008881882351F14F9B28C04E9B26C00E94EA
:100DD000070C60E080E00E949D096CE08DE10E94BC
:100DE0009D0981E391E00E943B0D68E28DE20E9443
:100DF0009D09609186017091870180E090E00E94DA
:100E0000520D86E291E00E943B0D0FEF26E344E590
:100E100061E288E20E94990B18820E946F09DF91BB
:100E2000CF910F91089580E480937C008FEE8093A2
:100E30007A0010927B0010927E0080EF87B98EEFCF
:100E400084B982E084BD93E095BD99EF97BD80930E
:100E50006E008AB184708AB98BB184608BB98AB113
:100E600088708AB98AB180718AB98BB180618BB977
:100E70008AB180728AB98BB180628BB981E08DBBF7
:100E8000E9E6F0E0808182608083808188608083F1
:100E900084E08093680090E390936D0093E29093D8
:100EA000B0008093B10084E48093810081E280935C
:100EB0006F0087E690E00E94730178940E94A60973
:100EC00020E048E065E088E690E00E940B0C0E947C
:100ED000EA05809151018093B40080E591E00E9481
:100EE00023068FE491E00E94330660919001709197
:100EF000910180E090E00E947D1160917A017091F3
:100F00007B0182E090E00E947D116091710184E09C
:100F100090E00E946F11DDCF95B115B891E29A95DE
:100F2000F1F70000882379F085B1846085B981E20A
:100F30008A95F1F7000085B1866085B991E29A95AE
:100F4000F1F7000007C085B1826085B981E28A951A
:100F5000F1F7000085B115B891E29A95F1F700001C
:100F600008951F93CF93DF93EC0185B1826085B91B
:100F700021E22A95F1F7000085B115B831E23A95E2
:100F8000F1F7000081E00E948C0710E02AC09E016A
:100F9000ADECBCEC0E94C61096958795969587950A
:100FA000969587959C01220F331F880F991F880FF4
:100FB000991F880F991F820F931F9E01281B390BC1
:100FC000C901012E02C0969587950A94E2F780FF29
:100FD00004C081E00E948C0703C080E00E948C075F
:100FE0001F5F1430A0F210E034C09E01ADECBCECE9
:100FF0000E94C610AC015695479556954795569553
:1010000047959A010E94C610969587959695879563
:10101000969587959C01220F331F880F991F880F83
:10102000991F880F991F820F931F9A01281B390B54
:10103000C901012E02C0969587950A94E2F780FFB8
:1010400004C081E00E948C0703C080E00E948C07EE
:101050001F5F143050F210E01BC09E01369527959B
:1010600036952795ABE7B4E10E94C6109695879513
:10107000012E02C0969587950A94E2F780FF04C07E
:1010800081E00E948C0703C080E00E948C071F5FF4
:10109000143018F3DF91CF911F91089566956695EE
:1010A0006695E82FF0E080E8689FE00DF11D1124BF
:1010B000E356FE4F40830895669566956695E82F42
:1010C000F0E080E8689FE00DF11D1124E356FE4F2B
:1010D00080810895CF93DF93DC01CB01FA0120E3F7
:1010E00022872187208727832683258324832383C0
:1010F000228321832083BB234CF4B095A095909547
:1011000081959F4FAF4FBF4F31E008C030E006C020
:101110009A5CAA49BB4321812F5F218381152AEC68
:1011200092072AE9A2072BE3B20794F706C0915E63
:10113000A54FB54022812F5F2283811521EE9207B2
:1011400025EFA20725E0B20794F707C0805896491B
:10115000A849B10923812F5F2383803826E99207AC
:1011600028E9A207B10594F707C080549244AF4024
:10117000B10924812F5F2483803422E492072FE079
:10118000A207B10594F707C0805A9648A140B1095B
:1011900025812F5F2583803A26E8920721E0A20768
:1011A000B10594F707C080519742A109B109268182
:1011B0002F5F2683803127E29207A105B1059CF7B6
:1011C00007C0885E9340A109B10927812F5F27835B
:1011D000883E23E09207A105B1059CF707C084561D
:1011E0009109A109B10920852F5F208784369105D7
:1011F000A105B105A4F706C00A97A109B109218587
:101200002F5F21878A309105A105B105ACF706C093
:101210000197A109B10922852F5F228718161906A7
:101220001A061B06ACF320E001C02F5FDF01A20FFE
:10123000B11D8C918033C9F3332331F02150DF018C
:10124000A20FB11D8DE28C934AE0421B30E00DC02D
:10125000832F90E0EF01C80FD91F820F911DDF018E
:10126000A80FB91F8C9188833F5F431788F7E30F5E
:10127000F11D1082DF91CF9108950F931F93CF93AB
:10128000DF93C82F8B01D42F0E949F0D88E70E9407
:10129000B10D8C2F0E94B10DC0E007C0F801EC0F1A
:1012A000F11D80810E94B10DCF5FCD17B8F30E9470
:1012B000A90DDF91CF911F910F910895CF93DF93E7
:1012C0001F92CDB7DEB7898341E0BE016F5F7F4FCC
:1012D00080E00E943D090F90DF91CF910895CF9358
:1012E00081E20E945E0980E00E945E098FE70E9411
:1012F0005E0982E20E945E0980E00E945E0987E04A
:101300000E945E09C0E00BC080E1C89FB0011124BB
:1013100063567E4F40E180E40E943D09CF5FC034B8
:1013200098F3CF910895882314F080939401089541
:10133000803410F4809395010895CF93C62F0E94B6
:1013400093098C2F0E949809CF9108950E94860DD1
:101350008EEA0E945E0985ED0E945E0980EF0E9480
:101360005E0988EA0E945E098FE30E945E0983EDB0
:101370000E945E0980E00E945E098DE80E945E097D
:1013800084E10E945E0980E40E945E0980E20E947E
:101390005E0980E00E945E0981EA0E945E0988EC95
:1013A0000E945E098AED0E945E0982E10E945E0948
:1013B00081E80E945E098FEF0E945E0989ED0E941C
:1013C0005E0981EF0E945E098BED0E945E0980E25A
:1013D0000E945E0984EA0E945E0986EA0E945E0914
:1013E0008EE20E945E098FEA0E945E0960E080E062
:1013F0000E949D09E4E9F1E086EA82831782168261
:101400001582118210820895FF920F931F93CF933C
:10141000DF93C62F142F0E949D09E4E9F1E0F180CB
:10142000D0816F2D8D2F0E945C081F3F79F4C7700B
:1014300001E010E020E030E004C0000F111F221F87
:10144000331FCA95D2F7482F402B0FC0C77001E059
:1014500010E020E030E004C0000F111F221F331FF6
:10146000CA95D2F70095402F48236F2D8D2F0E94EB
:101470004E08DF91CF911F910F91FF9008956F92C9
:101480007F928F929F92AF92BF92CF92DF92EF9214
:10149000FF920F931F93CF93DF9388230CF4A7C081
:1014A00044230CF4A4C0603408F0A1C0203408F038
:1014B0009EC0261B99249394920E481BD1E0D40F12
:1014C000962F9770162F191BE92CF12C28E030E08D
:1014D000291B3109E216F3067CF428E030E02E19CE
:1014E0003F094FEF50E06A0102C0D594C7942A9596
:1014F000E2F72C2DB92C04C028E0B22EB91A2FEF38
:10150000A82EC22ED12C02C0CC0CDD1C9A95E2F77D
:101510006C2C612F0E949D09812C19C0E4E9F1E037
:101520007180C081672D8C2F0E945C080F3F19F4D9
:10153000462D482B03C04C2D4095482381E08C0F4D
:1015400080939401672D8C2F0E944E0883948D16F2
:1015500028F316C088E0B80E185F612F8A2D0E940C
:101560009D09C0E00BC0E4E9F1E06181808191E078
:10157000980F9083402F0E944E08CF5FCD1798F3AD
:101580008B2D90E09C01285F3F4FE216F30614F785
:10159000B91468F5E81AF90A8FEF90E002C0880FD5
:1015A000991FEA94E2F7E82EE09468E0610F8A2D33
:1015B0000E949D0910E019C0E4E9F1E0F180C081CA
:1015C0006F2D8C2F0E945C080F3F19F44E2D482B75
:1015D00003C04E2D4095482381E08C0F80939401E9
:1015E0006F2D8C2F0E944E081F5F1D1728F3DF916F
:1015F000CF911F910F91FF90EF90DF90CF90BF9010
:10160000AF909F908F907F906F9008958F929F9250
:10161000AF92BF92CF92DF92EF92FF920F931F9300
:10162000CF93DF93C82FD62F142F88230CF474C0C8
:1016300044230CF471C0603408F06EC0203408F00C
:101640006BC084130AC0261710F4D22F262F4C2FFC
:101650006D2F8C2F0E943F0A5FC062130EC0481787
:1016600048F4C42F182F06C0402F6D2F8C2F0E94D6
:10167000040ACF5F1C17C0F74FC0261728F4C62EE8
:10168000D12CC21AD10804C0C22ED12CC61AD1083E
:101690001C1728F4AC2EB12CA11AB10804C0A12E3D
:1016A000B12CAC1AB108AC14BD0434F4812F122F44
:1016B000282F8C2FCD2FD82F1C1730F48D2FD22F01
:1016C000282F8C2FC12F182F912E9C1AD21718F467
:1016D000E22EED1A02C0ED2EE21AF92CF694D21782
:1016E00018F48824839416C088248A9413C0AC14F8
:1016F000BD0434F4402F6C2F8D2F0E94040A05C0C6
:10170000402F6D2F8C2F0E94040AFE1812F4D80D62
:10171000F90CCF5F1C1758F7DF91CF911F910F91F4
:10172000FF90EF90DF90CF90BF90AF909F908F9001
:101730000895DF92EF92FF920F931F93CF93DF9361
:1017400088230CF445C044230CF442C0603408F0F4
:101750003FC02034E8F5D02F122FD42EF62EE82EDD
:10176000481718F0042FC82F09C0082FC42F06C02F
:101770004D2F6F2D8C2F0E94040ACF5F0C17C0F7DE
:10178000DE1418F00D2DCE2D09C00E2DCD2D06C066
:101790004D2F612F8C2F0E94040ACF5F0C17C0F7CA
:1017A0001F1518F0212F6F2D02C02F2D612F0D2F27
:1017B0004E2D8E2D0E943F0A1F1518F0212F6F2DE0
:1017C00002C02F2D612F0D2F4D2D8D2D0E943F0A10
:1017D000DF91CF911F910F91FF90EF90DF900895CF
:1017E0001F93CF93DF93182FD0E00BC0412F6D2FA5
:1017F0008C2F0E944E08CF5F01C0C0E0CC23B4F70D
:10180000D85FD034D0F3DF91CF911F91089580E05D
:101810000E94F00B08956623E4F04034D0F42230A7
:10182000C0F4E4E9F1E0948383836583468350E068
:1018300041505109CA0199230CF407969595879553
:101840009595879595958795E4E9F1E08F5F878376
:10185000208708954F925F926F927F928F929F920E
:10186000AF92BF92CF92DF92EF92FF920F931F93AE
:10187000CF93DF93A4E9B1E05C9011964C9011975F
:10188000805215969C91159717962C911797929FB9
:10189000900111242F5F3F4F829FA001839F500D25
:1018A00011241396ED91FC9114975A018FEFA81A09
:1018B000B80AE40FF51F7490842D8770982E642C5D
:1018C000812C5FC0662D852D0E949D097501E80C55
:1018D000F11C670181E0C81AD10810E041C0809175
:1018E000970190919801FC01EE0DFF1D2491492D67
:1018F00050E030E0092C02C0220F331F0A94E2F7B7
:10190000022F8820A1F0FC01EC0DFD1DE49188E080
:1019100090E0841B950BF0E002C0F595E7958A9561
:10192000E2F70E2F022B80919B01C80ED11C8091F3
:101930009C01813039F4E4E9F1E0618180810E9409
:101940005C08082BC4E9D1E06981888191E0980F97
:101950009883402F0E944E088F81E80EF11C1F5F74
:10196000171508F4BCCF80919C01811107C0E4E9F0
:10197000F1E040E0618180810E944E0888E0680EBD
:10198000839480919B01881608F49CCF242D269582
:101990002695269530E080919A0190E0840D911D66
:1019A0000197AC0112F4495F5F4F559547955595E6
:1019B0004795559547952417350709F445C08FE39A
:1019C000861508F441C0662D852D0E949D09A80C3E
:1019D000B11C81E0A81AB10800E029C0C4E9D1E037
:1019E000F98018816F2D812F0E945C08EB81FC81AA
:1019F000EA0DFB1D449128E030E02919310950E03F
:101A000002C0559547952A95E2F7482B9885913065
:101A100009F4482BC4E9D1E081E0810F88836F2D60
:101A2000812F0E944E088F81A80EB11C0F5F0715F1
:101A3000A8F280919C01811107C0E4E9F1E040E047
:101A4000618180810E944E08852D870D642D8F5FF6
:101A50000E949D09DF91CF911F910F91FF90EF9010
:101A6000DF90CF90BF90AF909F908F907F906F90BE
:101A70005F904F900895CF93DF93EC010DC0E4E9A0
:101A8000F1E09081258130E0290F311D20383105AA
:101A900034F421960E942A0C88818111F0CFDF91C5
:101AA000CF9108950F931F93CF93DF93CDB7DEB7F8
:101AB0002C970FB6F894DEBF0FBECDBF6115710530
:101AC0008105910521F480E30E942A0C14C0611560
:101AD0007105810520E8920771F08E010F5F1F4F9D
:101AE0002CE0F80111922A95E9F7A8010E946A08F2
:101AF000C8010E943B0D2C960FB6F894DEBF0FBEB6
:101B0000CDBFDF91CF911F910F91089587B1806173
:101B100087B987B1806287B988B1806188B988B197
:101B2000806288B91092B90088E48093B80084E09C
:101B30008093BC0008958091B900887F089584EA5D
:101B40008093BC008091BC008823E4F70E949B0D29
:101B5000089585ED8093BC008091BC0084FDFCCF8E
:101B600008958093BB0084E88093BC008091BC0002
:101B70008823E4F70E949B0D08955058BB27AA279D
:101B80000E94D50D0C94D90F0E94CB0F38F00E9403
:101B9000D20F20F039F49F3F19F426F40C94B80FBB
:101BA0000EF4E095E7FB0C94B20FE92F0E94EA0FC8
:101BB00058F3BA17620773078407950720F079F482
:101BC000A6F50C940C100EF4E0950B2EBA2FA02D58
:101BD0000B01B90190010C01CA01A0011124FF27DA
:101BE000591B99F0593F50F4503E68F11A16F040D5
:101BF000A22F232F342F4427585FF3CF46953795D4
:101C00002795A795F0405395C9F77EF41F16BA0B98
:101C1000620B730B840BBAF09150A1F0FF0FBB1F46
:101C2000661F771F881FC2F70EC0BA0F621F731F8F
:101C3000841F48F4879577956795B795F7959E3FEC
:101C400008F0B0CF9395880F08F09927EE0F97957D
:101C5000879508950E948E0F08F481E008950E94F0
:101C6000430E0C94D90F0E94D20F58F00E94CB0F54
:101C700040F029F45F3F29F00C94B20F51110C94FD
:101C80000D100C94B80F0E94EA0F68F39923B1F37A
:101C9000552391F3951B550BBB27AA276217730792
:101CA000840738F09F5F5F4F220F331F441FAA1F26
:101CB000A9F335D00E2E3AF0E0E832D091505040E2
:101CC000E695001CCAF72BD0FE2F29D0660F771F90
:101CD000881FBB1F261737074807AB07B0E809F076
:101CE000BB0B802DBF01FF2793585F4F3AF09E3FFB
:101CF000510578F00C94B20F0C940D105F3FE4F393
:101D0000983ED4F3869577956795B795F7959F5F3D
:101D1000C9F7880F911D9695879597F90895E1E089
:101D2000660F771F881FBB1F621773078407BA07E8
:101D300020F0621B730B840BBA0BEE1F88F7E09543
:101D40000895BEE304D008F490E80895BFE3222785
:101D50003327A9010E94F20F60F19F5748F1B9178C
:101D600040F1BFE3B91B9927B8503AF4660F771FCB
:101D7000881F991FB395D2F316C0B8504AF0232F8D
:101D8000342F452F562F672F782F8827B850BAF752
:101D9000B85F49F08695779567955795479537953C
:101DA0002795BA95B9F716F40E94BB0F8894089549
:101DB000889460E070E0CB0108950E94E40E68947E
:101DC000B1110C940D1008950E94F20F88F09F57E6
:101DD00098F0B92F9927B751B0F0E1F0660F771F4F
:101DE000881F991F1AF0BA95C9F714C0B13091F045
:101DF0000E940C10B1E008950C940C10672F782FFE
:101E00008827B85F39F0B93FCCF386957795679509
:101E1000B395D9F73EF490958095709561957F4F75
:101E20008F4F9F4F0895E89409C097FB3EF490951B
:101E30008095709561957F4F8F4F9F4F9923A9F0A3
:101E4000F92F96E9BB279395F69587957795679532
:101E5000B795F111F8CFFAF4BB0F11F460FF1BC076
:101E60006F5F7F4F8F4F9F4F16C0882311F096E909
:101E700011C0772321F09EE8872F762F05C06623B7
:101E800071F096E8862F70E060E02AF09A95660F70
:101E9000771F881FDAF7880F9695879597F9089529
:101EA000E894F92F96EBFF2381F01216130614061F
:101EB000440B9395F6958795779567955795404090
:101EC000FF23B9F71BC099270895882351F4985030
:101ED000D2F7872B762F652F542F432F322F20E0F8
:101EE000B1F3121613061406440B88233AF09A95A0
:101EF000440F551F661F771F881FCAF755234AF4E2
:101F0000440F551F11F460FF04C06F5F7F4F8F4F68
:101F10009F4F880F9695879597F90895990F000818
:101F2000550FAA0BE0E8FEEF16161706E807F907AB
:101F3000C0F012161306E407F50798F0621B730B46
:101F4000840B950B39F40A2661F0232B242B252BC7
:101F500021F408950A2609F4A140A6958FEF811D6A
:101F6000811D089597F99F6780E870E060E008950B
:101F70009FEF80EC089590958095709560955095B1
:101F80004095309521953F4F4F4F5F4F6F4F7F4F9B
:101F90008F4F9F4F089500240A94161617061806AF
:101FA0000906089500240A9412161306140605065D
:101FB0000895092E0394000C11F4882352F0BB0FEE
:101FC00040F4BF2B11F460FF04C06F5F7F4F8F4F51
:101FD0009F4F089557FD9058440F551F59F05F3F8C
:101FE00071F04795880F97FB991F61F09F3F79F03B
:101FF00087950895121613061406551FF2CF4695BD
:10200000F1DF08C0161617061806991FF1CF86953E
:102010007105610508940895E894BB276627772722
:10202000CB0197F908950E948E0F08F48FEF089561
:102030000E942B100C94D90F0E94CB0F38F00E94F5
:10204000D20F20F0952311F00C94B20F0C94B80F1E
:1020500011240C940D100E94EA0F70F3959FC1F3A8
:10206000950F50E0551F629FF001729FBB27F00D46
:10207000B11D639FAA27F00DB11DAA1F649F66279B
:10208000B00DA11D661F829F2227B00DA11D621FEA
:10209000739FB00DA11D621F839FA00D611D221FA4
:1020A000749F3327A00D611D231F849F600D211D88
:1020B000822F762F6A2F11249F5750409AF0F1F00B
:1020C00088234AF0EE0FFF1FBB1F661F771F881F74
:1020D00091505040A9F79E3F510580F00C94B20FEB
:1020E0000C940D105F3FE4F3983ED4F386957795FA
:1020F0006795B795F795E7959F5FC1F7FE2B880F1A
:10210000911D9695879597F90895A1E21A2EAA1B1D
:10211000BB1BFD010DC0AA1FBB1FEE1FFF1FA21797
:10212000B307E407F50720F0A21BB30BE40BF50B94
:10213000661F771F881F991F1A9469F7609570951D
:10214000809590959B01AC01BD01CF010895052EAE
:1021500097FB1EF400940E94BE1057FD07D00E940A
:10216000851007FC03D04EF40C94BE10509540959A
:10217000309521953F4F4F4F5F4F08959095809533
:10218000709561957F4F8F4F9F4F0895A29FB0012B
:10219000B39FC001A39F700D811D1124911DB29F9B
:1021A000700D811D1124911D08950E94C610A59FD8
:1021B000900DB49F900DA49F800D911D1124089542
:1021C000689401C0E8948F929F92CF93DF930E940E
:1021D000EE10DF91CF919F908F90089588249924DD
:1021E000F401E401B0E49F93AA279A158B049C04A0
:1021F000ED05FE05CF05D007A10798F4AD2FDC2F24
:10220000CF2FFE2FE92D982C892E982F872F762FF0
:10221000652F542F432F322F2227B85031F7BF910B
:1022200027C01B2EBF91BB27220F331F441F551FF2
:10223000661F771F881F991F881C991CEE1FFF1FA0
:10224000CC1FDD1FAA1FBB1F8A149B04EC05FD05D4
:10225000CE05DF05A007B10748F08A189B08EC09F6
:10226000FD09CE09DF09A00BB10B21601A94E1F63C
:102270002EF49401AF01BE01CD01000C08950F931F
:10228000083090F0982F872F762F652F542F432FEB
:10229000322F22270850F4CF220F331F441F551F1F
:1022A000661F771F881F991F0A95B2F70F9108952F
:1022B0002A0D3B1D4C1D5D1D6E1D7F1D801F911F36
:1022C0000895F999FECF92BD81BDF89A992780B5FE
:1022D0000895A8E1B0E042E050E00C948411262F6C
:1022E000F999FECF1FBA92BD81BD20BD0FB6F894FB
:1022F000FA9AF99A0FBE019608950E946F11272F3E
:102300000C947011DC01CB01FC01F999FECF06C0E1
:10231000F2BDE1BDF89A319600B40D9241505040A3
:08232000B8F70895F894FFCF0F
:102328004C41534420436172002025002052504DF7
:1023380000204300536F6E61723A2000442E2050F3
:102348006E65753A200020434D004B4D0050004407
:0E2358000053454E534F52204445205245003D
:00000001FF
